{
	"tests/Counter.sol": {
		"Counter": {
			"abi": [
				{
					"inputs": [],
					"name": "dec",
					"outputs": [
						{
							"internalType": "int256",
							"name": "",
							"type": "int256"
						}
					],
					"stateMutability": "nonpayable",
					"type": "function"
				},
				{
					"inputs": [],
					"name": "getNumber",
					"outputs": [
						{
							"internalType": "int256",
							"name": "",
							"type": "int256"
						}
					],
					"stateMutability": "view",
					"type": "function"
				},
				{
					"inputs": [],
					"name": "inc",
					"outputs": [
						{
							"internalType": "int256",
							"name": "",
							"type": "int256"
						}
					],
					"stateMutability": "nonpayable",
					"type": "function"
				}
			],
			"devdoc": {
				"kind": "dev",
				"methods": {},
				"version": 1
			},
			"evm": {
				"assembly": "    /* \"tests/Counter.sol\":60:376  contract Counter {\r... */\n  mstore(0x40, 0x80)\n  callvalue\n  dup1\n  iszero\n  tag_1\n  jumpi\n  0x00\n  dup1\n  revert\ntag_1:\n  pop\n  dataSize(sub_0)\n  dup1\n  dataOffset(sub_0)\n  0x00\n  codecopy\n  0x00\n  return\nstop\n\nsub_0: assembly {\n        /* \"tests/Counter.sol\":60:376  contract Counter {\r... */\n      mstore(0x40, 0x80)\n      callvalue\n      dup1\n      iszero\n      tag_1\n      jumpi\n      0x00\n      dup1\n      revert\n    tag_1:\n      pop\n      jumpi(tag_2, lt(calldatasize, 0x04))\n      shr(0xe0, calldataload(0x00))\n      dup1\n      0x371303c0\n      eq\n      tag_3\n      jumpi\n      dup1\n      0xb3bcfa82\n      eq\n      tag_4\n      jumpi\n      dup1\n      0xf2c9ecd8\n      eq\n      tag_5\n      jumpi\n    tag_2:\n      0x00\n      dup1\n      revert\n        /* \"tests/Counter.sol\":207:286  function inc() public returns (int256)\r... */\n    tag_3:\n      tag_6\n      tag_7\n      jump\t// in\n    tag_6:\n      mload(0x40)\n      tag_8\n      swap2\n      swap1\n      tag_9\n      jump\t// in\n    tag_8:\n      mload(0x40)\n      dup1\n      swap2\n      sub\n      swap1\n      return\n        /* \"tests/Counter.sol\":294:373  function dec() public returns (int256)\r... */\n    tag_4:\n      tag_10\n      tag_11\n      jump\t// in\n    tag_10:\n      mload(0x40)\n      tag_12\n      swap2\n      swap1\n      tag_9\n      jump\t// in\n    tag_12:\n      mload(0x40)\n      dup1\n      swap2\n      sub\n      swap1\n      return\n        /* \"tests/Counter.sol\":112:199  function getNumber() public view returns (int256)\r... */\n    tag_5:\n      tag_13\n      tag_14\n      jump\t// in\n    tag_13:\n      mload(0x40)\n      tag_15\n      swap2\n      swap1\n      tag_9\n      jump\t// in\n    tag_15:\n      mload(0x40)\n      dup1\n      swap2\n      sub\n      swap1\n      return\n        /* \"tests/Counter.sol\":207:286  function inc() public returns (int256)\r... */\n    tag_7:\n        /* \"tests/Counter.sol\":238:244  int256 */\n      0x00\n        /* \"tests/Counter.sol\":277:278  1 */\n      0x01\n        /* \"tests/Counter.sol\":269:275  number */\n      0x00\n      dup1\n        /* \"tests/Counter.sol\":269:278  number+=1 */\n      dup3\n      dup3\n      sload\n      tag_17\n      swap2\n      swap1\n      tag_18\n      jump\t// in\n    tag_17:\n      swap3\n      pop\n      pop\n      dup2\n      swap1\n      sstore\n        /* \"tests/Counter.sol\":262:278  return number+=1 */\n      swap1\n      pop\n        /* \"tests/Counter.sol\":207:286  function inc() public returns (int256)\r... */\n      swap1\n      jump\t// out\n        /* \"tests/Counter.sol\":294:373  function dec() public returns (int256)\r... */\n    tag_11:\n        /* \"tests/Counter.sol\":325:331  int256 */\n      0x00\n        /* \"tests/Counter.sol\":364:365  1 */\n      0x01\n        /* \"tests/Counter.sol\":356:362  number */\n      0x00\n      dup1\n        /* \"tests/Counter.sol\":356:365  number-=1 */\n      dup3\n      dup3\n      sload\n      tag_20\n      swap2\n      swap1\n      tag_21\n      jump\t// in\n    tag_20:\n      swap3\n      pop\n      pop\n      dup2\n      swap1\n      sstore\n        /* \"tests/Counter.sol\":349:365  return number-=1 */\n      swap1\n      pop\n        /* \"tests/Counter.sol\":294:373  function dec() public returns (int256)\r... */\n      swap1\n      jump\t// out\n        /* \"tests/Counter.sol\":112:199  function getNumber() public view returns (int256)\r... */\n    tag_14:\n        /* \"tests/Counter.sol\":154:160  int256 */\n      0x00\n        /* \"tests/Counter.sol\":185:191  number */\n      dup1\n      sload\n        /* \"tests/Counter.sol\":178:191  return number */\n      swap1\n      pop\n        /* \"tests/Counter.sol\":112:199  function getNumber() public view returns (int256)\r... */\n      swap1\n      jump\t// out\n        /* \"#utility.yul\":7:122   */\n    tag_24:\n        /* \"#utility.yul\":92:115   */\n      tag_26\n        /* \"#utility.yul\":109:114   */\n      dup2\n        /* \"#utility.yul\":92:115   */\n      tag_27\n      jump\t// in\n    tag_26:\n        /* \"#utility.yul\":87:90   */\n      dup3\n        /* \"#utility.yul\":80:116   */\n      mstore\n        /* \"#utility.yul\":7:122   */\n      pop\n      pop\n      jump\t// out\n        /* \"#utility.yul\":128:346   */\n    tag_9:\n        /* \"#utility.yul\":219:223   */\n      0x00\n        /* \"#utility.yul\":257:259   */\n      0x20\n        /* \"#utility.yul\":246:255   */\n      dup3\n        /* \"#utility.yul\":242:260   */\n      add\n        /* \"#utility.yul\":234:260   */\n      swap1\n      pop\n        /* \"#utility.yul\":270:339   */\n      tag_29\n        /* \"#utility.yul\":336:337   */\n      0x00\n        /* \"#utility.yul\":325:334   */\n      dup4\n        /* \"#utility.yul\":321:338   */\n      add\n        /* \"#utility.yul\":312:318   */\n      dup5\n        /* \"#utility.yul\":270:339   */\n      tag_24\n      jump\t// in\n    tag_29:\n        /* \"#utility.yul\":128:346   */\n      swap3\n      swap2\n      pop\n      pop\n      jump\t// out\n        /* \"#utility.yul\":352:877   */\n    tag_18:\n        /* \"#utility.yul\":391:394   */\n      0x00\n        /* \"#utility.yul\":410:429   */\n      tag_31\n        /* \"#utility.yul\":427:428   */\n      dup3\n        /* \"#utility.yul\":410:429   */\n      tag_27\n      jump\t// in\n    tag_31:\n        /* \"#utility.yul\":405:429   */\n      swap2\n      pop\n        /* \"#utility.yul\":443:462   */\n      tag_32\n        /* \"#utility.yul\":460:461   */\n      dup4\n        /* \"#utility.yul\":443:462   */\n      tag_27\n      jump\t// in\n    tag_32:\n        /* \"#utility.yul\":438:462   */\n      swap3\n      pop\n        /* \"#utility.yul\":631:632   */\n      dup2\n        /* \"#utility.yul\":563:629   */\n      0x7fffffffffffffffffffffffffffffffffffffffffffffffffffffffffffffff\n        /* \"#utility.yul\":559:633   */\n      sub\n        /* \"#utility.yul\":556:557   */\n      dup4\n        /* \"#utility.yul\":552:634   */\n      sgt\n        /* \"#utility.yul\":547:548   */\n      0x00\n        /* \"#utility.yul\":544:545   */\n      dup4\n        /* \"#utility.yul\":540:549   */\n      slt\n        /* \"#utility.yul\":533:550   */\n      iszero\n        /* \"#utility.yul\":529:635   */\n      and\n        /* \"#utility.yul\":526:658   */\n      iszero\n      tag_33\n      jumpi\n        /* \"#utility.yul\":638:656   */\n      tag_34\n      tag_35\n      jump\t// in\n    tag_34:\n        /* \"#utility.yul\":526:658   */\n    tag_33:\n        /* \"#utility.yul\":818:819   */\n      dup2\n        /* \"#utility.yul\":750:816   */\n      0x8000000000000000000000000000000000000000000000000000000000000000\n        /* \"#utility.yul\":746:820   */\n      sub\n        /* \"#utility.yul\":743:744   */\n      dup4\n        /* \"#utility.yul\":739:821   */\n      slt\n        /* \"#utility.yul\":735:736   */\n      0x00\n        /* \"#utility.yul\":732:733   */\n      dup4\n        /* \"#utility.yul\":728:737   */\n      slt\n        /* \"#utility.yul\":724:822   */\n      and\n        /* \"#utility.yul\":721:845   */\n      iszero\n      tag_36\n      jumpi\n        /* \"#utility.yul\":825:843   */\n      tag_37\n      tag_35\n      jump\t// in\n    tag_37:\n        /* \"#utility.yul\":721:845   */\n    tag_36:\n        /* \"#utility.yul\":869:870   */\n      dup3\n        /* \"#utility.yul\":866:867   */\n      dup3\n        /* \"#utility.yul\":862:871   */\n      add\n        /* \"#utility.yul\":855:871   */\n      swap1\n      pop\n        /* \"#utility.yul\":352:877   */\n      swap3\n      swap2\n      pop\n      pop\n      jump\t// out\n        /* \"#utility.yul\":883:1410   */\n    tag_21:\n        /* \"#utility.yul\":922:926   */\n      0x00\n        /* \"#utility.yul\":942:961   */\n      tag_39\n        /* \"#utility.yul\":959:960   */\n      dup3\n        /* \"#utility.yul\":942:961   */\n      tag_27\n      jump\t// in\n    tag_39:\n        /* \"#utility.yul\":937:961   */\n      swap2\n      pop\n        /* \"#utility.yul\":975:994   */\n      tag_40\n        /* \"#utility.yul\":992:993   */\n      dup4\n        /* \"#utility.yul\":975:994   */\n      tag_27\n      jump\t// in\n    tag_40:\n        /* \"#utility.yul\":970:994   */\n      swap3\n      pop\n        /* \"#utility.yul\":1164:1165   */\n      dup3\n        /* \"#utility.yul\":1096:1162   */\n      0x8000000000000000000000000000000000000000000000000000000000000000\n        /* \"#utility.yul\":1092:1166   */\n      add\n        /* \"#utility.yul\":1089:1090   */\n      dup3\n        /* \"#utility.yul\":1085:1167   */\n      slt\n        /* \"#utility.yul\":1080:1081   */\n      0x00\n        /* \"#utility.yul\":1077:1078   */\n      dup5\n        /* \"#utility.yul\":1073:1082   */\n      slt\n        /* \"#utility.yul\":1066:1083   */\n      iszero\n        /* \"#utility.yul\":1062:1168   */\n      and\n        /* \"#utility.yul\":1059:1191   */\n      iszero\n      tag_41\n      jumpi\n        /* \"#utility.yul\":1171:1189   */\n      tag_42\n      tag_35\n      jump\t// in\n    tag_42:\n        /* \"#utility.yul\":1059:1191   */\n    tag_41:\n        /* \"#utility.yul\":1350:1351   */\n      dup3\n        /* \"#utility.yul\":1282:1348   */\n      0x7fffffffffffffffffffffffffffffffffffffffffffffffffffffffffffffff\n        /* \"#utility.yul\":1278:1352   */\n      add\n        /* \"#utility.yul\":1275:1276   */\n      dup3\n        /* \"#utility.yul\":1271:1353   */\n      sgt\n        /* \"#utility.yul\":1267:1268   */\n      0x00\n        /* \"#utility.yul\":1264:1265   */\n      dup5\n        /* \"#utility.yul\":1260:1269   */\n      slt\n        /* \"#utility.yul\":1256:1354   */\n      and\n        /* \"#utility.yul\":1253:1377   */\n      iszero\n      tag_43\n      jumpi\n        /* \"#utility.yul\":1357:1375   */\n      tag_44\n      tag_35\n      jump\t// in\n    tag_44:\n        /* \"#utility.yul\":1253:1377   */\n    tag_43:\n        /* \"#utility.yul\":1402:1403   */\n      dup3\n        /* \"#utility.yul\":1399:1400   */\n      dup3\n        /* \"#utility.yul\":1395:1404   */\n      sub\n        /* \"#utility.yul\":1387:1404   */\n      swap1\n      pop\n        /* \"#utility.yul\":883:1410   */\n      swap3\n      swap2\n      pop\n      pop\n      jump\t// out\n        /* \"#utility.yul\":1416:1492   */\n    tag_27:\n        /* \"#utility.yul\":1452:1459   */\n      0x00\n        /* \"#utility.yul\":1481:1486   */\n      dup2\n        /* \"#utility.yul\":1470:1486   */\n      swap1\n      pop\n        /* \"#utility.yul\":1416:1492   */\n      swap2\n      swap1\n      pop\n      jump\t// out\n        /* \"#utility.yul\":1498:1678   */\n    tag_35:\n        /* \"#utility.yul\":1546:1623   */\n      0x4e487b7100000000000000000000000000000000000000000000000000000000\n        /* \"#utility.yul\":1543:1544   */\n      0x00\n        /* \"#utility.yul\":1536:1624   */\n      mstore\n        /* \"#utility.yul\":1643:1647   */\n      0x11\n        /* \"#utility.yul\":1640:1641   */\n      0x04\n        /* \"#utility.yul\":1633:1648   */\n      mstore\n        /* \"#utility.yul\":1667:1671   */\n      0x24\n        /* \"#utility.yul\":1664:1665   */\n      0x00\n        /* \"#utility.yul\":1657:1672   */\n      revert\n\n    auxdata: 0xa2646970667358221220f1e5b27c4a840d26b0e4634ed574393375d24dfb5f43b3896b8f9157e3fffe8e64736f6c63430008070033\n}\n",
				"bytecode": {
					"linkReferences": {},
					"object": "608060405234801561001057600080fd5b506102a8806100206000396000f3fe608060405234801561001057600080fd5b50600436106100415760003560e01c8063371303c014610046578063b3bcfa8214610064578063f2c9ecd814610082575b600080fd5b61004e6100a0565b60405161005b91906100f6565b60405180910390f35b61006c6100bf565b60405161007991906100f6565b60405180910390f35b61008a6100de565b60405161009791906100f6565b60405180910390f35b600060016000808282546100b49190610111565b925050819055905090565b600060016000808282546100d391906101a5565b925050819055905090565b60008054905090565b6100f081610239565b82525050565b600060208201905061010b60008301846100e7565b92915050565b600061011c82610239565b915061012783610239565b9250817f7fffffffffffffffffffffffffffffffffffffffffffffffffffffffffffffff0383136000831215161561016257610161610243565b5b817f800000000000000000000000000000000000000000000000000000000000000003831260008312161561019a57610199610243565b5b828201905092915050565b60006101b082610239565b91506101bb83610239565b9250827f8000000000000000000000000000000000000000000000000000000000000000018212600084121516156101f6576101f5610243565b5b827f7fffffffffffffffffffffffffffffffffffffffffffffffffffffffffffffff01821360008412161561022e5761022d610243565b5b828203905092915050565b6000819050919050565b7f4e487b7100000000000000000000000000000000000000000000000000000000600052601160045260246000fdfea2646970667358221220f1e5b27c4a840d26b0e4634ed574393375d24dfb5f43b3896b8f9157e3fffe8e64736f6c63430008070033",
					"opcodes": "PUSH1 0x80 PUSH1 0x40 MSTORE CALLVALUE DUP1 ISZERO PUSH2 0x10 JUMPI PUSH1 0x0 DUP1 REVERT JUMPDEST POP PUSH2 0x2A8 DUP1 PUSH2 0x20 PUSH1 0x0 CODECOPY PUSH1 0x0 RETURN INVALID PUSH1 0x80 PUSH1 0x40 MSTORE CALLVALUE DUP1 ISZERO PUSH2 0x10 JUMPI PUSH1 0x0 DUP1 REVERT JUMPDEST POP PUSH1 0x4 CALLDATASIZE LT PUSH2 0x41 JUMPI PUSH1 0x0 CALLDATALOAD PUSH1 0xE0 SHR DUP1 PUSH4 0x371303C0 EQ PUSH2 0x46 JUMPI DUP1 PUSH4 0xB3BCFA82 EQ PUSH2 0x64 JUMPI DUP1 PUSH4 0xF2C9ECD8 EQ PUSH2 0x82 JUMPI JUMPDEST PUSH1 0x0 DUP1 REVERT JUMPDEST PUSH2 0x4E PUSH2 0xA0 JUMP JUMPDEST PUSH1 0x40 MLOAD PUSH2 0x5B SWAP2 SWAP1 PUSH2 0xF6 JUMP JUMPDEST PUSH1 0x40 MLOAD DUP1 SWAP2 SUB SWAP1 RETURN JUMPDEST PUSH2 0x6C PUSH2 0xBF JUMP JUMPDEST PUSH1 0x40 MLOAD PUSH2 0x79 SWAP2 SWAP1 PUSH2 0xF6 JUMP JUMPDEST PUSH1 0x40 MLOAD DUP1 SWAP2 SUB SWAP1 RETURN JUMPDEST PUSH2 0x8A PUSH2 0xDE JUMP JUMPDEST PUSH1 0x40 MLOAD PUSH2 0x97 SWAP2 SWAP1 PUSH2 0xF6 JUMP JUMPDEST PUSH1 0x40 MLOAD DUP1 SWAP2 SUB SWAP1 RETURN JUMPDEST PUSH1 0x0 PUSH1 0x1 PUSH1 0x0 DUP1 DUP3 DUP3 SLOAD PUSH2 0xB4 SWAP2 SWAP1 PUSH2 0x111 JUMP JUMPDEST SWAP3 POP POP DUP2 SWAP1 SSTORE SWAP1 POP SWAP1 JUMP JUMPDEST PUSH1 0x0 PUSH1 0x1 PUSH1 0x0 DUP1 DUP3 DUP3 SLOAD PUSH2 0xD3 SWAP2 SWAP1 PUSH2 0x1A5 JUMP JUMPDEST SWAP3 POP POP DUP2 SWAP1 SSTORE SWAP1 POP SWAP1 JUMP JUMPDEST PUSH1 0x0 DUP1 SLOAD SWAP1 POP SWAP1 JUMP JUMPDEST PUSH2 0xF0 DUP2 PUSH2 0x239 JUMP JUMPDEST DUP3 MSTORE POP POP JUMP JUMPDEST PUSH1 0x0 PUSH1 0x20 DUP3 ADD SWAP1 POP PUSH2 0x10B PUSH1 0x0 DUP4 ADD DUP5 PUSH2 0xE7 JUMP JUMPDEST SWAP3 SWAP2 POP POP JUMP JUMPDEST PUSH1 0x0 PUSH2 0x11C DUP3 PUSH2 0x239 JUMP JUMPDEST SWAP2 POP PUSH2 0x127 DUP4 PUSH2 0x239 JUMP JUMPDEST SWAP3 POP DUP2 PUSH32 0x7FFFFFFFFFFFFFFFFFFFFFFFFFFFFFFFFFFFFFFFFFFFFFFFFFFFFFFFFFFFFFFF SUB DUP4 SGT PUSH1 0x0 DUP4 SLT ISZERO AND ISZERO PUSH2 0x162 JUMPI PUSH2 0x161 PUSH2 0x243 JUMP JUMPDEST JUMPDEST DUP2 PUSH32 0x8000000000000000000000000000000000000000000000000000000000000000 SUB DUP4 SLT PUSH1 0x0 DUP4 SLT AND ISZERO PUSH2 0x19A JUMPI PUSH2 0x199 PUSH2 0x243 JUMP JUMPDEST JUMPDEST DUP3 DUP3 ADD SWAP1 POP SWAP3 SWAP2 POP POP JUMP JUMPDEST PUSH1 0x0 PUSH2 0x1B0 DUP3 PUSH2 0x239 JUMP JUMPDEST SWAP2 POP PUSH2 0x1BB DUP4 PUSH2 0x239 JUMP JUMPDEST SWAP3 POP DUP3 PUSH32 0x8000000000000000000000000000000000000000000000000000000000000000 ADD DUP3 SLT PUSH1 0x0 DUP5 SLT ISZERO AND ISZERO PUSH2 0x1F6 JUMPI PUSH2 0x1F5 PUSH2 0x243 JUMP JUMPDEST JUMPDEST DUP3 PUSH32 0x7FFFFFFFFFFFFFFFFFFFFFFFFFFFFFFFFFFFFFFFFFFFFFFFFFFFFFFFFFFFFFFF ADD DUP3 SGT PUSH1 0x0 DUP5 SLT AND ISZERO PUSH2 0x22E JUMPI PUSH2 0x22D PUSH2 0x243 JUMP JUMPDEST JUMPDEST DUP3 DUP3 SUB SWAP1 POP SWAP3 SWAP2 POP POP JUMP JUMPDEST PUSH1 0x0 DUP2 SWAP1 POP SWAP2 SWAP1 POP JUMP JUMPDEST PUSH32 0x4E487B7100000000000000000000000000000000000000000000000000000000 PUSH1 0x0 MSTORE PUSH1 0x11 PUSH1 0x4 MSTORE PUSH1 0x24 PUSH1 0x0 REVERT INVALID LOG2 PUSH5 0x6970667358 0x22 SLT KECCAK256 CALL 0xE5 0xB2 PUSH29 0x4A840D26B0E4634ED574393375D24DFB5F43B3896B8F9157E3FFFE8E64 PUSH20 0x6F6C634300080700330000000000000000000000 "
				},
				"gasEstimates": {
					"creation": {
						"codeDepositCost": "136000",
						"executionCost": "183",
						"totalCost": "136183"
					},
					"external": {
						"dec()": "infinite",
						"getNumber()": "2459",
						"inc()": "infinite"
					}
				},
				"methodIdentifiers": {
					"dec()": "b3bcfa82",
					"getNumber()": "f2c9ecd8",
					"inc()": "371303c0"
				}
			},
			"storageLayout": {
				"storage": [
					{
						"astId": 3,
						"contract": "tests/Counter.sol:Counter",
						"label": "number",
						"offset": 0,
						"slot": "0",
						"type": "t_int256"
					}
				],
				"types": {
					"t_int256": {
						"encoding": "inplace",
						"label": "int256",
						"numberOfBytes": "32"
					}
				}
			},
			"userdoc": {
				"kind": "user",
				"methods": {},
				"version": 1
			}
		}
	}
}